:100000000C9446000C9450000C9450000C9450003A
:100010000C9450000C9450000C9450000C94500020
:100020000C9450000C9450000C9450000C94500010
:100030000C9450000C9450000C9450000C94500000
:100040000C9450000C9450000C9450000C945000F0
:100050000C9450000C9450000C9450000C945000E0
:100060000C9450000C9450000C9450000C945000D0
:100070000C9450000C9450000C9450000C945000C0
:100080000C9450000C9450000C94500011241FBE8E
:10009000CFEFD0E1DEBFCDBF0E9452000C947F00B5
:1000A0000C9400008FEF87BB18BA2FEF39E648E1B8
:1000B000215030404040E1F700C0000011BA82BB3F
:1000C00021E030E0819B04C08099FCCF18BAFACFC0
:1000D00080E090E0A901082E01C0440F0A94EAF7DD
:1000E00048BB5FEF61EE44E0515060404040E1F7B3
:1000F00000C0000001968830910561F7E5CFF894C3
:02010000FFCF2F
:00000001FF
