:100000000C9446000C9450000C9450000C9450003A
:100010000C9450000C9450000C9450000C94500020
:100020000C9450000C9450000C9450000C94500010
:100030000C9450000C9450000C9450000C94500000
:100040000C9450000C9450000C9450000C945000F0
:100050000C9450000C9450000C9450000C945000E0
:100060000C9450000C9450000C9450000C945000D0
:100070000C9450000C9450000C9450000C945000C0
:100080000C9450000C9450000C94500011241FBE8E
:10009000CFEFD0E1DEBFCDBF0E9452000C9496009E
:1000A0000C94000020EF30E64FEF90E880E450E140
:1000B00060E227BB38BB11BA42BB819916C018BA9F
:1000C0007FEFE3EDF0E37150E040F040E1F700C076
:1000D000000058BB7FEFE3EDF0E37150E040F040EB
:1000E000E1F700C0000068BB17C08099E2CF18BAE2
:1000F0007FEFE3EDF0E37150E040F040E1F700C046
:10010000000098BB7FEFE3EDF0E37150E040F0407A
:10011000E1F700C0000088BB7FEFE9E6F8E171502D
:10012000E040F040E1F700C00000C3CFF894FFCFFB
:00000001FF
